:020000040800F2
:100000000000022039260008C1250008C325000889
:10001000C5250008C7250008C92500080000000004
:10002000000000000000000000000000CB250008D8
:10003000CD25000800000000CF250008D1250008CC
:1000400089260008892600088926000889260008D4
:1000500089260008892600088926000889260008C4
:1000600089260008892600088926000889260008B4
:1000700089260008892600088926000889260008A4
:100080008926000889260008892600088926000894
:100090008926000889260008892600088926000884
:1000A0008926000889260008892600088926000874
:1000B0008926000889260008892600088926000864
:1000C0008926000889260008892600088926000854
:1000D000892600088926000889260008DD250008F1
:1000E0008926000889260008892600088926000834
:1000F0008926000889260008892600088926000824
:100100008926000889260008892600088926000813
:100110008926000889260008892600088926000803
:1001200089260008892600088926000889260008F3
:1001300089260008892600088926000889260008E3
:1001400089260008892600088926000889260008D3
:1001500089260008892600088926000889260008C3
:1001600089260008892600088926000889260008B3
:10017000892600088926000889260008000000005A
:08018000892600088926000809
:1001880010B5054C237833B9044B13B10448AFF3C9
:1001980000800123237010BD18000020000000001B
:1001A800D426000808B5034B1BB103490348AFF335
:1001B800008008BD000000001C000020D4260008B4
:1001C80053B94AB9002908BF00281CBF4FF0FF31B6
:1001D8004FF0FF3000F072B9ADF1080C6DE904CEB4
:1001E80000F006F8DDF804E0DDE9022304B070470A
:1001F8002DE9F047089E04468846002B4BD18A42D9
:10020800154667D9B2FA82F24AB1C2F1200701FA5B
:1002180002F320FA07F7954047EA030894404FEAAB
:10022800154E230CB8FBFEF71FFA85FC0EFB17884A
:1002380043EA084307FB0CF1994209D9EB1807F187
:10024800FF3080F01B81994240F21881023F2B4415
:100258005B1AA4B2B3FBFEF00EFB103344EA03446E
:1002680000FB0CFCA44509D92C1900F1FF3380F0E0
:100278000781A44540F2048102382C4440EA074033
:10028800A4EB0C0400271EB1D4400023C6E90043A8
:100298003946BDE8F0878B4209D9002E00F0EB8083
:1002A8000027C6E9000138463946BDE8F087B3FAA9
:1002B80083F7002F47D18B4202D3824200F2FA80A3
:1002C800841A61EB030301209846002EE0D0C6E9AA
:1002D8000048DDE702B9FFDEB2FA82F2002A40F0F8
:1002E8008F80491B4FEA154E1FFA85F80127B1FB8D
:1002F800FEFC230C0EFB1C1143EA014308FB0CF126
:10030800994207D9EB180CF1FF3002D2994200F25A
:10031800CD808446591AA3B2B1FBFEF00EFB10142F
:1003280043EA044408FB00F8A04507D92C1900F15A
:10033800FF3302D2A04500F2B6801846A4EB0804A9
:1003480040EA0C409FE7C7F1200CBB4022FA0CFEA4
:100358004EEA030E01FA07F420FA0CF521FA0CF321
:100368004FEA1E482543B3FBF8F92C0C08FB193358
:100378001FFA8EFA44EA034309FB0AF49C4202FA84
:1003880007F200FA07F10BD91EEB030309F1FF305E
:1003980080F087809C4240F28480A9F1020973446E
:1003A8001B1BADB2B3FBF8F008FB103345EA03445E
:1003B80000FB0AFAA24508D91EEB040400F1FF333A
:1003C8006BD2A24569D90238744440EA0940A0FBBF
:1003D8000289A4EB0A044C45C2464B4654D351D07B
:1003E800002E69D0B1EB0A0564EB030404FA0CFC97
:1003F800FD40FC404CEA0505C6E90054002747E7E4
:10040800C2F1200320FA03F7954001FA02F021FA1D
:1004180003F34FEA154E3843010CB3FBFEF71FFAFE
:1004280085F80EFB173341EA034107FB08F38B42BB
:1004380004FA02F407D9691807F1FF3C2FD28B425E
:100448002DD9023F2944CB1A81B2B3FBFEF00EFB33
:10045800103341EA034100FB08F38B4207D96918BE
:1004680000F1FF3C17D28B4215D902382944C91A2A
:1004780040EA07473BE73746304609E70746E7E6DD
:100488001846FBE64145ABD2B8EB020A69EB0E020F
:1004980001381346A4E76046E9E7184695E767463A
:1004A800D1E781467CE702382C4447E7ACF1020CDF
:1004B8002B442FE7384608E73746E9E6704700BF80
:1004C80010B504460E4B18784FF47A73B3FBF0F36B
:1004D8000C4A1068B0FBF3F000F0F8FA68B90F2C7A
:1004E80001D901200AE0002221464FF0FF3000F038
:1004F800ADFA034B5C60002000E0012010BD00BF96
:10050800000000201400002008B50B4B1A6842F4C4
:1005180000721A601A6842F480621A601A6842F41B
:1005280080721A60032000F07FFA0020FFF7C8FFEE
:1005380001F06EFF002008BD003C0240034A11682C
:10054800034B1B780B441360704700BF3400002036
:1005580000000020014B1868704700BF34000020DD
:10056800494B5A6822F440325A605A6841680A4333
:100578005A600268536823F48073536002685368B2
:10058800016943EA012353600268536823F040730A
:1005980053600268536881680B435360026893682C
:1005A80023F40063936002689368C1680B43936007
:1005B800826A364B9A4249D00268936823F0706386
:1005C800936002689368816A0B439360026893683A
:1005D80023F04053936002689368C16A0B439360A9
:1005E8000268936823F00203936002689368816944
:1005F80043EA41039360036A002B32D102685368CF
:1006080023F4006353600268D36A23F47003D3624F
:100618000168CB6AC269013A43EA0253CB620268B5
:10062800936823F40073936002689368016B43EA4C
:10063800412393600268936823F48063936002689F
:100648009368416943EA812393607047026893681D
:1006580023F0706393600268936823F040539360BB
:10066800BEE70268536843F4006353600268536846
:1006780023F46043536001684B68426A013A43EAD5
:1006880042334B60BFE700BF002301400100000F69
:1006980030B310B50446036C43B1236C13F0100F4C
:1006A8000AD00120002384F83C3010BD436480F850
:1006B8003C3001F0F7FEF0E7236C23F4885323F075
:1006C800020343F0020323642046FFF749FF00209A
:1006D8006064236C23F0030343F001032364E1E720
:1006E8000120704782B00023019390F83C30012B21
:1006F80063D0012380F83C3003689A6812F0010F38
:1007080013D19A6842F001029A60304B1B68304A54
:10071800A2FB03239B0C03EB4303019302E0019B21
:10072800013B0193019B002BF9D10268936813F0F8
:10073800010F44D0036C23F4E06323F0010343F476
:1007480080730364536813F4806F05D0036C23F43B
:10075800405343F480530364036C13F4805F19D04F
:10076800436C23F006034364002380F83C306FF0A9
:1007780022031360174B5B6813F01F0F0DD103683A
:100788009A6812F0405F1DD19A6842F080429A60E0
:10079800002015E000234364E6E703680E4A93420D
:1007A80001D000200CE09A6812F0405F0CD19A68E2
:1007B80042F080429A60002002E0022000E000201F
:1007C80002B070470020FBE70020F9E71400002082
:1007D80083DE1B43002301400020014003689A6820
:1007E80012F4806F03D09B6813F4807F1CD170B51E
:1007F8000D460446FFF7AEFE064623681A6812F057
:10080800020F1AD1B5F1FF3FF7D025B1FFF7A2FECD
:10081800801BA842F1D9236C43F00403236400230E
:1008280084F83C3003202DE0036C43F0200303647C
:10083800002380F83C30012070476FF012021A60E4
:10084800236C43F40073236423689A6812F0405FB2
:1008580017D1A269BAB9DA6A12F4700F03D09B688B
:1008680013F4806F11D1236C23F480732364236CF9
:1008780013F4805F0BD1236C43F001032364002041
:1008880000E0002070BD0020FCE70020FAE700200F
:10089800F8E70368D86C704730B482B0002301933E
:1008A80090F83C30012B00F0B780012380F83C30F1
:1008B8000B68092B3ED90568EA689BB203EB430332
:1008C8001E3B072404FA03F322EA0303EB600568DE
:1008D800EA688C680B8803EB43031E3B04FA03F3B6
:1008E8001343EB604B68062B3AD805686A6B03EB39
:1008F8008303053B1F2404FA03F322EA03036B6313
:1009080005686A6B4B6803EB8303053B0C8804FAA4
:1009180003F313436B630268404B9A4250D002685A
:100928003E4B9A4255D0002380F83C30184602B01E
:1009380030BC704705682A699BB203EB4303072460
:1009480004FA03F322EA03032B6105682A698C6819
:100958000B8803EB430304FA03F313432B61C1E74A
:100968000C2B16D805682A6B03EB8303233B1F2443
:1009780004FA03F322EA03032B6305682A6B4B6826
:1009880003EB8303233B0C8804FA03F313432B6321
:10099800C1E70568EA6A03EB8303413B1F2404FAB5
:1009A80003F322EA0303EB620568EA6A4B6803EB88
:1009B8008303413B0C8804FA03F31343EB62AAE771
:1009C8000B68122BABD1164A536843F4800353606B
:1009D800A5E70B68103B012BA5D8114A536843F4CF
:1009E800000353600B68102B9DD10E4B1B6802F15E
:1009F800467202F52E3202F28332A2FB03239B0CCD
:100A080003EB83035A00019202E0019B013B01932F
:100A1800019B002BF9D186E7022088E700200140DE
:100A28000023014014000020074AD36823F4E06340
:100A38001B041B0C000200F4E060184340F0BF6088
:100A480040F40030D060704700ED00E030B4174B40
:100A5800DB68C3F30223C3F10704042C28BF042472
:100A68001D1D062D18D9033B4FF0FF3505FA04F478
:100A780021EA0401994005FA03F322EA0303194322
:100A880000280BDB0901C9B200F1604000F56140A4
:100A980080F8001330BC70470023E5E700F00F0032
:100AA8000901C9B2024B1954F4E700BF00ED00E098
:100AB80014ED00E000F01F02400901239340024AB0
:100AC80042F82030704700BF00E100E00138B0F183
:100AD800807F0AD2064B5860064AF02182F823101C
:100AE8000020986007221A6070470120704700BFF5
:100AF80010E000E000ED00E0042805D0054A136886
:100B080023F0040313607047024A136843F0040398
:100B18001360704710E000E0704708B5FFF7FCFF6E
:100B280008BD90F83530DBB2022B03D08023436533
:100B380001207047052380F835300268136823F0D8
:100B4800010313600020704700230F2B00F2D780A9
:100B5800F0B482B039E0072200E00022B2403A4304
:100B68000234674E46F82420664A1468EA4302EACB
:100B780004064F6817F4803F01D045EA0406614C2B
:100B88002660646802EA04064F6817F4003F01D043
:100B980045EA04065B4C6660A46802EA04064F68EE
:100BA80017F4801F01D045EA0406564CA660E46895
:100BB80022404E6816F4001F01D045EA0402514C49
:100BC800E26001330F2B00F2978001229A400C68F3
:100BD80004EA0205AA42F4D14C68022C01D0122C76
:100BE80010D1DE08083650F826C003F00704A70025
:100BF8000F24BC402CEA040C0C69BC4044EA0C04E9
:100C080040F8264004685F000326BE40F64306EA23
:100C1800040C4C6804F00304BC4044EA0C0404606F
:100C28004C6804F1FF3CBCF1010F03D9112C01D031
:100C3800122C10D1846806EA040CCC68BC4044EA43
:100C48000C048460446824EA02024C68C4F300146B
:100C58009C4014434460C26816408A68BA403243D4
:100C6800C2604A6812F0805FABD000220192264A27
:100C7800546C44F480445464526C02F480420192EF
:100C8800019A9C08A61C1E4A52F8267003F003021B
:100C980096000F22B24027EA02071C4A90423FF40E
:100CA8005CAF02F5806290421AD002F580629042F1
:100CB80018D002F58062904216D002F58062904208
:100CC80014D002F58062904212D002F58062904200
:100CD80010D002F5806290423FF43DAF08223DE714
:100CE80001223BE7022239E7032237E7042235E7EE
:100CF800052233E7062231E702B0F0BC704770479F
:100D080000380140003C0140003802400000024029
:100D18000369194201D10020704701207047000083
:100D2800002800F0BB8170B582B00446036813F058
:100D3800010F3BD0A74B9B6803F00C03042B2CD06E
:100D4800A44B9B6803F00C03082B21D06368B3F510
:100D5800803F4FD0B3F5A02F52D09E4B1A6822F493
:100D680080321A601A6822F480221A606368002BA5
:100D780050D0FFF7EFFB0546964B1B6813F4003F76
:100D880014D1FFF7E7FB401B6428F5D903208AE15B
:100D9800904B5B6813F4800FD8D08E4B1B6813F40C
:100DA800003F03D06368002B00F07A81236813F0BA
:100DB800020F55D0874B9B6813F00C0F3ED0854B24
:100DC8009B6803F00C03082B33D0E368002B68D032
:100DD800814B01221A60FFF7BDFB05467D4B1B685E
:100DE80013F0020F54D1FFF7B5FB401B0228F5D9C9
:100DF800032058E1774A136843F480331360B5E75A
:100E0800744B1A6842F480221A601A6842F48032DD
:100E18001A60ABE7FFF79EFB05466E4B1B6813F4A1
:100E2800003FC3D0FFF796FB401B6428F5D9032089
:100E380039E1684B5B6813F4800FC6D1654B1B68BA
:100E480013F0020F04D0E368012B01D001202AE13E
:100E5800604A136823F0F803216943EAC103136069
:100E6800236813F0080F40D0636963B35B4B01221A
:100E78001A60FFF76FFB0546564B5B6F13F0020FC6
:100E880033D1FFF767FB401B0228F5D903200AE19D
:100E9800504A136823F0F803216943EAC103136039
:100EA800DEE74D4B00221A60FFF754FB0546494B1D
:100EB8001B6813F0020FD3D0FFF74CFB401B02282E
:100EC800F5D90320EFE0454B00221A60FFF742FBFB
:100ED8000546404B5B6F13F0020F06D0FFF73AFB55
:100EE800401B0228F5D90320DDE0236813F0040F26
:100EF80079D0384B1B6C13F0805F33D100230193FA
:100F0800344B1A6C42F080521A641B6C03F0805305
:100F18000193019B0125324B1B6813F4807F23D07A
:100F2800A368012B34D0052B38D02A4B1A6F22F036
:100F380001021A671A6F22F004021A67A368002BCD
:100F480036D0FFF707FB0646224B1B6F13F0020F44
:100F580048D1FFF7FFFA801B41F288339842F3D952
:100F68000320A0E00025D6E71D4A136843F48073E8
:100F78001360FFF7EFFA0646194B1B6813F4807FDE
:100F8800CED1FFF7E7FA801B0228F5D903208AE0C3
:100F9800104A136F43F001031367CFE70D4B1A6F25
:100FA80042F004021A671A6F42F001021A67C5E795
:100FB800FFF7D0FA0646074B1B6F13F0020F11D04C
:100FC800FFF7C8FA801B41F288339842F3D903200F
:100FD80069E000BF0038024000004742800E4742E7
:100FE80000700040E5B9A369002B5BD0304A9268D5
:100FF80002F00C02082A58D0022B17D02D4B0022E1
:101008001A60FFF7A7FA0446294B1B6813F0007F04
:1010180042D0FFF79FFA001B0228F5D9032042E0CF
:10102800234A136C23F080531364DCE7214B00221E
:101038001A60FFF78FFA05461D4B1B6813F0007FF7
:1010480006D0FFF787FA401B0228F5D903202AE0CB
:10105800E369226A1343626A43EA8213A26A520866
:10106800013A43EA0243E26A43EA0263104A5360E0
:10107800104B01221A60FFF76DFA04460C4B1B68EF
:1010880013F0007F06D1FFF765FA001B0228F5D997
:10109800032008E0002006E0002004E0012070475B
:1010A800012000E0002002B070BD0120FBE700BF76
:1010B8000038024060004742324B9B6803F00C0343
:1010C800042B5CD0082B01D02F4870472DE9F04B3A
:1010D8002C4B5A6802F03F025B6813F4800F2BD048
:1010E800284B5B68C3F388131E4600275C01002564
:1010F800E41A65EB0705A90141EA9461A001001B08
:1011080061EB0501CB0043EA5073C400A01943EB1F
:1011180007014B0243EAD0534402204619460023F4
:10112800FFF74EF8174B5B68C3F3014301335B00CD
:10113800B0FBF3F0BDE8F08B124B5B68C3F3881388
:101148001E4600275C010025E41A65EB0705A90186
:1011580041EA9461A001001B61EB0501CB0043EA61
:101168005073C400A01943EB07018B0243EA905364
:101178008402204619460023FFF722F8D2E70348E5
:10118800704700BF003802400024F40000127A00C3
:10119800002800F09D8070B504464F4B1B6803F093
:1011A8000F038B4209D2CBB24B4A1370136803F07A
:1011B8000F038B4201D0012070BD236813F0020F8A
:1011C80017D013F0040F04D0444A936843F4E05353
:1011D8009360236813F0080F04D0404A936843F4DF
:1011E800604393603D4A936823F0F003A06803438B
:1011F80093600D46236813F0010F32D06368012B0A
:1012080021D09A1E012A25D9344A126812F0020FF9
:1012180060D032498A6822F0030213438B60FFF7DB
:1012280099F906462D4B9B6803F00C036268B3EBF3
:10123800820F16D0FFF78EF9801B41F2883398424F
:10124800F0D90320B8E7254A126812F4003FE0D12C
:101258000120B1E7214A126812F0007FD9D101209C
:10126800AAE71D4B1B6803F00F03AB4209D9EAB28A
:10127800194B1A701B6803F00F03AB4201D0012011
:101288009AE7236813F0040F06D0144A936823F4EE
:10129800E053E1680B439360236813F0080F07D00D
:1012A8000E4A936823F46043216943EAC1039360BB
:1012B800FFF702FF094B9B68C3F30313084AD35C8B
:1012C800D840084B18600020FFF7FAF8002073E7B1
:1012D8000120704701206FE7003C024000380240BF
:1012E800EC26000814000020014B1868704700BF66
:1012F8001400002008B5FFF7F7FF044B9B68C3F301
:101308008223034AD35CD84008BD00BF003802409E
:10131800FC26000808B5FFF7E7FF044B9B68C3F3FA
:101328004233034AD35CD84008BD00BF00380240AE
:10133800FC26000870B4036A23F001030362036A01
:101348004268846924F073040D6845EA040623F0B2
:1013580002048B6823430C4DA84202D00B4CA042D8
:101368000BD123F00803CD682B4323F0040322F4A8
:1013780040724D6915438A692A43426086614A680A
:101388004263036270BC70470000014000040140E2
:1013980030B4036A23F480730362036A4268C46941
:1013A80024F073040D682C4323F400738D6843EA1A
:1013B80005230E4DA84203D005F58065A8420ED13D
:1013C80023F40063CD6843EA052323F4806322F401
:1013D80040524D6942EA05128D6942EA051242609F
:1013E800C4614A68C263036230BC704700000140B0
:1013F80030B4036A23F480530362036A4468C26901
:1014080022F4E6420D6842EA052223F400538D686F
:1014180043EA0533094DA84203D005F58065A84283
:1014280004D124F480444D6944EA85144460C261BF
:101438004A680264036230BC704700BF0000014084
:1014480010B4036A046A24F001040462846924F075
:10145800F00444EA021223F00A030B438261036298
:101468005DF8044B704710B4036A23F0100303625D
:101478008469036A24F4704444EA023223F0A00326
:1014880043EA0113826103625DF8044B7047836885
:1014980023F0700341F0070119438160704710B4CD
:1014A800846824F47F4442EA03230B432343836084
:1014B8005DF8044B70470268D36843F00103D360BA
:1014C8000268136843F001031360002070477047F7
:1014D80090F83830012B7DD010B50446012380F8F0
:1014E8003830022380F839300268936823F47F4348
:1014F80023F0770393600B68402B57D010D9702BDB
:101508003ED01FD8502B47D0602B32D1CA684968CB
:101518000068FFF7A8FF60212068FFF7B8FF28E000
:10152800102B4DD008D9202B4FD0302B21D1302172
:101538000068FFF7ACFF1CE0DBB900210068FFF78B
:10154800A6FF16E0B3F5805F0ED0B3F5005F10D1AB
:10155800CB684A6889680068FFF7A1FF226893682A
:1015680043F48043936004E00268936823F0070320
:101578009360012384F83930002084F8380010BDC6
:10158800CB684A6889680068FFF789FF2268936812
:1015980043F077039360ECE7CA6849680068FFF78F
:1015A8004FFF50212068FFF772FFE2E7CA684968D9
:1015B8000068FFF745FF40212068FFF768FFD8E77C
:1015C80010210068FFF763FFD3E720210068FFF7C9
:1015D8005EFFCEE70220704703682E4A904212D081
:1015E800B0F1804F0FD0A2F57C4290420BD002F5AB
:1015F8008062904207D002F58062904203D002F5E3
:101608007842904203D123F070034A681343214A79
:1016180090422AD0B0F1804F27D0A2F57C42904268
:1016280023D002F5806290421FD002F5806290427A
:101638001BD002F57842904217D002F570529042C2
:1016480013D002F5806290420FD002F5806290427A
:101658000BD0A2F59832904207D002F580629042F2
:1016680003D002F58062904203D123F44073CA6824
:10167800134303608B68C3620B688362054B98420F
:1016880003D003F58063984201D10B6903630123FA
:101698004361704700000140A8B110B5044690F8B6
:1016A80039305BB1022384F83930211D2068FFF7F7
:1016B80093FF012384F83930002010BD80F83830BA
:1016C80000F014FFEEE701207047A8B110B50446FA
:1016D80090F839305BB1022384F83930211D206835
:1016E800FFF77AFF012384F83930002010BD80F815
:1016F8003830FFF7ECFEEEE70120704730B4036A9C
:1017080023F010030362036A4468826922F4E64204
:101718000D6842EA052223F020038D6843EA051389
:101728000E4DA84203D005F58065A8420ED123F0DE
:101738008003CD6843EA051323F0400324F4406492
:101748004D6944EA85048D6944EA850444608261F0
:101758004A688263036230BC704700BF00000140E2
:1017680038B590F83830012B66D00D460446012371
:1017780080F83830022380F839300C2A1AD8DFE88C
:1017880002F00719191920191919341919194700DC
:101798000068FFF7CFFD2268936943F0080393615F
:1017A8002268936923F00403936122689369296985
:1017B8000B439361012384F83930002084F8380002
:1017C80038BD0068FFF79AFF2268936943F4006305
:1017D80093612268936923F4806393612268936913
:1017E800296943EA01239361E4E70068FFF7D0FD24
:1017F8002268D36943F00803D3612268D36923F0D0
:101808000403D3612268D36929690B43D361D1E703
:101818000068FFF7EDFD2268D36943F40063D361E4
:101828002268D36923F48063D3612268D369296964
:1018380043EA0123D361BDE70220C1E710B40123C5
:1018480003FA01F4036A23EA04030362036A8A4081
:10185800134303625DF8044B7047000010B504465B
:1018680001220068FFF7EAFF2368094A934203D080
:1018780002F58062934203D15A6C42F400425A64E2
:101888002268136843F001031360002010BD00BFF5
:101898000000014090F83830012B22D030B40122EA
:1018A80080F83820022380F839300468636823F010
:1018B80070036360046863680D682B4363600468A1
:1018C800A36823F08003A3600468A36849680B43F6
:1018D800A36080F83920002380F83830184630BCDF
:1018E8007047022070470268D36823F49073D3606E
:1018F8000268536923F001035361202380F83A30CA
:10190800704790F83930DBB2212B2AD18368B3F5C0
:10191800805F16D0036A5A1C02621A7803685A60FC
:10192800C38C013B9BB2C384EBB90268D36823F034
:101938008003D3600268D36843F04003D36000207B
:101948007047036A1B880268C3F30803536003697E
:101958001BB9036A02330362E2E7036A01330362D5
:10196800DEE7022070470020704700002DE9F843A9
:10197800044601680A6922F44052C36813430B61A4
:101988000168CA6822F4164222F00C0283680069D2
:10199800034360690343E06903431343CB60216851
:1019A8004A6922F44072A36913434B61E369B3F5B2
:1019B800004F60D02368B84A934200F0148102F5C2
:1019C8008062934200F00F81FFF794FC00EB8000E7
:1019D80000EB80006568AD00B0FBF5F5AF4FA7FBE5
:1019E80005356D092E01FFF785FC00EB800000EB43
:1019F80080006568AD00B0FBF5F9FFF77BFC00EBF4
:101A0800800000EB80006568AD00B0FBF5F5A7FB32
:101A180005356D094FF0640808FB15952D01323521
:101A2800A7FB05356D0905F0F0053544FFF762FCA5
:101A380000EB800000EB80006668B600B0FBF6F6AD
:101A4800FFF758FC00EB800000EB800063689B0008
:101A5800B0FBF3F0A7FB0030400908FB10684FEA21
:101A6800081808F13208A7FB0837C7F3431723689B
:101A78002F449F600DE12368874A93425BD002F5AB
:101A88008062934257D0FFF735FC00EB800000EBF3
:101A9800800065686D00B0FBF5F5804FA7FB053544
:101AA8006D092E01FFF726FC00EB800000EB80009B
:101AB80065686D00B0FBF5F9FFF71CFC00EB8000D2
:101AC80000EB800065686D00B0FBF5F5A7FB0535F8
:101AD8006D094FF0640808FB1595ED003235A7FB3A
:101AE80005356D096D0005F4F8753544FFF702FCFE
:101AF80000EB800000EB800066687600B0FBF6F62D
:101B0800FFF7F8FB00EB800000EB800063685B00E8
:101B1800B0FBF3F3A7FB03235B0908FB13684FEA49
:101B2800C80808F13208A7FB0837C7F3421723682B
:101B38002F449F60ADE0FFF7EDFB00EB800000EB6A
:101B4800800065686D00B0FBF5F5544FA7FB0535BF
:101B58006D092E01FFF7DEFB00EB800000EB800033
:101B680065686D00B0FBF5F9FFF7D4FB00EB80006A
:101B780000EB800065686D00B0FBF5F5A7FB053547
:101B88006D094FF0640808FB1595ED003235A7FB89
:101B980005356D096D0005F4F8753544FFF7BAFB96
:101BA80000EB800000EB800066687600B0FBF6F67C
:101BB800FFF7B0FB00EB800000EB800063685B0080
:101BC800B0FBF3F3A7FB03235B0908FB13684FEA99
:101BD800C80808F13208A7FB0837C7F3421723687B
:101BE8002F449F6055E0FFF795FB00EB800000EB6A
:101BF80080006568AD00B0FBF5F5284FA7FB0535FB
:101C08006D092E01FFF786FB00EB800000EB8000DA
:101C18006568AD00B0FBF5F9FFF77CFB00EB8000D1
:101C280000EB80006568AD00B0FBF5F5A7FB053556
:101C38006D094FF0640808FB15952D013235A7FB97
:101C480005356D0905F0F0053544FFF763FB00EB3A
:101C5800800000EB80006668B600B0FBF6F6FFF780
:101C680059FB00EB800000EB800063689B00B0FB31
:101C7800F3F0A7FB0030400908FB10684FEA08188A
:101C880008F13208A7FB0837C7F3431723682F4426
:101C98009F60BDE8F88300BF001001401F85EB512D
:101CA80058B310B5044690F839300BB3242384F8A0
:101CB80039302268D36823F40053D3602046FFF7F5
:101CC80055FE2268136923F490431361226853690F
:101CD80023F02A0353612268D36843F40053D36086
:101CE8000020E063202384F8393084F83A3010BDAE
:101CF80080F8383000F02EFCD8E70120704790F8C3
:101D08003A30DBB2202B1BD1E1B1EAB190F8383080
:101D1800012B1BD081628285C2850023C3632222E6
:101D280080F83A2080F8383001684A6942F00102A8
:101D38004A610168CA6842F49072CA6018467047DE
:101D48000220704701207047012070470220704729
:101D5800704708B50168CB6823F04003CB602023A7
:101D680080F83930FFF7F4FF002008BD08B590F877
:101D78003A30DBB2222B40D18368B3F5805F0ED0B6
:101D8800036903BB03685A68836A591C81621A7025
:101D9800C38D013B9BB2C385F3B100202EE0826A5C
:101DA800036943B903685B68C3F308031380836A54
:101DB80002338362ECE703685B68DBB21380836AF3
:101DC80001338362E4E703685B68826A511C8162BD
:101DD80003F07F031370DBE70268D36823F4907382
:101DE800D3600268536923F001035361202380F80C
:101DF8003A3000F0D9F8002000E0022008BD704712
:101E080010B5044602681368D168526913F00F00D0
:101E180005D113F0200F02D011F0200F53D1002864
:101E280067D012F0010202D111F4907F61D013F053
:101E3800010F06D011F4807F03D0E06B40F0010061
:101E4800E06313F0040F04D01AB1E06B40F0020015
:101E5800E06313F0020F04D01AB1E06B40F0040005
:101E6800E06313F0080F04D01AB1E26B42F00802E5
:101E7800E263E26B002A48D013F0200F02D011F081
:101E8800200F24D123685B6903F04003E26B12F052
:101E9800080F00D13BB32046FFF725FD23685A6998
:101EA80012F0400F1BD05A6922F040025A61636B4E
:101EB8008BB11A4A1A65606BFEF733FE28B3606B64
:101EC800036D984721E02046FFF750FF1DE02046AC
:101ED800FFF74CFFD6E72046FFF791FF15E02046B5
:101EE800FFF78DFF11E02046FFF789FF0023E3632A
:101EF8000BE013F0800F02D011F0800F06D113F021
:101F0800400F02D011F0400F04D110BD2046FFF75A
:101F1800F8FCFAE72046FFF71CFFF6E7291F000840
:101F280008B5806B0023C385C384FFF768FF08BD2D
:101F380000B58BB000220192194B196B41F00401D6
:101F48001963196B01F00401019101990292196B4F
:101F580041F080011963196B01F080010291029927
:101F68000392196B41F001011963196B01F001012A
:101F7800039103990492196B41F0080119631B6BD3
:101F880003F008030493049B4FF40053059306924F
:101F9800079205A90348FEF7D7FD0BB05DF804FBCF
:101FA800003802400008024008B50268284B9A42EF
:101FB80006D0284B1A8928492848FFF7A0FE08BDF3
:101FC800254B1B78264A13704F2B17D0462B1AD057
:101FD8004D2B1DD0412B1FD0422B21D0302B23D08D
:101FE800322B25D0342B27D0362B29D0382B2BD089
:101FF800312BDED1174B64225A60DAE7154B4FF0CC
:10200800FF321A60D5E7134B6FF001021A60D0E770
:10201800104B01221A60CCE70E4B02221A60C8E767
:102028000C4B03221A60C4E70A4B00225A60C0E72F
:10203800084B14225A60BCE7064B28225A60B8E7BE
:10204800044B3C225A60B4E7024B50225A60B0E776
:102058000048004008000020000100207400002013
:10206800B4000020FEE7000008B50B480B4B0360E6
:102078004FF41653436000238360C36003610C224E
:1020880042618361C361FFF70BFE00B908BD4FF4DD
:10209800CA710348FFF7E6FF7400002000480040BB
:1020A8000427000800B585B01648174B03604FF4A5
:1020B8008033436000238360036183610362C362EA
:1020C800124A8262C3600122C26103634261FEF761
:1020D800DFFA60B901230093019300230293694654
:1020E8000848FEF7D9FB38B905B05DF804FB4FF492
:1020F800A3710748FFF7B6FF4FF4A8710448FFF72C
:10210800B1FF00BFB8000020002001400100000F0F
:102118000427000800B58FB02648274B03605323D7
:1021280043600023836040F2E732C2600361FFF737
:10213800B3FA28BB0EA94FF4805341F8103D1D484F
:10214800FFF7C6F908BB1B48FFF7BFFA10BB00230F
:102158000893099308A91748FFF79CFBF8B960236F
:102168000193002202920392059201A91148FFF7F8
:10217800F7FAC8B90F4800F0D1F90FB05DF804FBC1
:102188004FF4B2710D48FFF76DFF4FF4B5710B486E
:10219800FFF768FF40F26F110848FFF763FF4FF43D
:1021A800BB710648FFF75EFF40F27F110348FFF757
:1021B80059FF00BF3800002000080040042700082D
:1021C80000B595B0002101912B4B1A6C42F080525A
:1021D8001A641B6C03F080530193019B0291274BF7
:1021E8001A6842F480421A601B6803F48043029321
:1021F800029B012308934FF48033099302220E9225
:102208004FF480030F9304231093A8211191129285
:10221800139308A8FEF784FD20BB0F230393022322
:102228000493002305934FF4A05306934FF480536F
:102238000793052103A8FEF7ABFFC0B9FFF754F8D1
:102248000F4BA3FB00308009FEF740FC0420FEF78B
:1022580053FC002211464FF0FF30FEF7F7FB15B094
:102268005DF804FB40F213110648FFF7FBFE40F24D
:1022780021110448FFF7F6FE0038024000700040C4
:10228800D34D62100427000810B5FEF73DF9FFF79B
:1022980097FFFFF74DFEFFF7E7FEFFF703FFFFF796
:1022A80039FF534B1A8953495348FFF728FD534CBC
:1022B8002046FFF700F900212046FFF7CFFA06E095
:1022C8004B4B5B6803EB83035A004D4B5A63484BF7
:1022D8001B680233052BFAD801A252F823F000BF7D
:1022E80001230008C9220008D72200080923000892
:1022F8003123000887230008414B00225A63E6E790
:102308004FF400513F48FEF703FD18B93C4B00223B
:102318005A63DCE70128DAD1354B5B6803EB8303AA
:102328005A00374B5A63D2E7374C2046FEF7DAF9A2
:102338000A212046FEF752FA48B1344B1B8840F672
:10234800B732934209D92E4B32225A63BFE720464F
:10235800FEF79FFA2D4B1880EFE7A3F57A7292B239
:10236800B2F5FA6F03D2264BC8225A63AFE7B3F52A
:102378007A7FACD2224B40F2E7325A63A7E7224C6D
:102388002046FEF7AFF90A212046FEF727FA88B162
:102398004FF400511B48FEF7BBFC88B1012896D1C9
:1023A8001A4B1B8840F6B73293420DD9144B322290
:1023B8005A638CE72046FEF76CFA144B1880E7E75F
:1023C8000F4B00225A6382E7A3F57A7292B2B2F5F4
:1023D800FA6F03D20A4BC8225A6378E7B3F57A7FBB
:1023E800BFF475AF064B40F2E7325A636FE700BFA0
:1023F80008000020000100207400002038000020A0
:102408000008004000080240B80000200201002037
:1024180010B582B000240094214B5A6C42F48042DB
:102428005A645A6C02F480420092009A01941A6C21
:1024380042F080521A641B6C03F080530193019B95
:102448000320FEF7F1FA224621466FF00B00FEF753
:10245800FDFA224621466FF00A00FEF7F7FA2246F7
:1024680021466FF00900FEF7F1FA224621466FF087
:102478000400FEF7EBFA224621466FF00300FEF750
:10248800E5FA224621466FF00100FEF7DFFA224600
:1024980021464FF0FF30FEF7D9FA02B010BD00BF59
:1024A8000038024002680F4B9A4200D0704700B5CE
:1024B80087B00021009103F58C335A6C42F4807286
:1024C8005A645B6C03F480730093009B02230193AE
:1024D80003230293039101A90348FEF735FB07B0D4
:1024E8005DF804FB00200140000002400268094B2F
:1024F8009A4200D0704782B000230193064B1A6CB1
:1025080042F004021A641B6C03F004030193019B5C
:1025180002B07047000800400038024002680B4BC8
:102528009A4200D0704700B587B04FF480530193AA
:1025380002230293002203920492059301A90448FE
:10254800FEF702FB07B05DF804FB00BF000800407F
:10255800000C02400268164B9A4200D0704710B532
:1025680086B00024009403F5F8331A6C42F48022F4
:102578001A641B6C03F480230093009B4FF44063A0
:102588000193022302930123039303230493072354
:10259800059301A90748FEF7D7FA224621462720C6
:1025A800FEF754FA2720FEF785FA06B010BD00BFE3
:1025B80000480040000802407047FEE7FEE7FEE7DB
:1025C800FEE770477047704708B5FDF7B7FFFEF79D
:1025D800A4FA08BD08B50248FFF712FC08BD00BF01
:1025E800740000200F49D1F8883043F47003C1F813
:1025F80088300D4B1A6842F001021A60002098607A
:102608001A6822F0847222F480321A60074A5A60EB
:102618001A6822F480221A60D8604FF000638B6039
:10262800704700BF00ED00E0003802401030002481
:10263800DFF834D0002103E00C4B5B5843500431E1
:102648000B480C4B42189A42F6D30B4A02E000237F
:1026580042F8043B094B9A42F9D3FFF7C3FF00F055
:1026680011F8FFF711FE7047000002202427000828
:10267800000000201800002018000020040100209D
:10268800FEE7000070B50D4E0D4CA41BA4100025EC
:10269800A54209D10B4E0C4C00F018F8A41BA4104D
:1026A8000025A54205D170BD56F82530984701355B
:1026B800EEE756F8253098470135F2E71C27000861
:1026C8001C2700081C27000820270008F8B500BFB1
:1026D800F8BC08BC9E467047F8B500BFF8BC08BCFB
:0426E8009E46704753
:1026EC0000000000000000000102030406070809B6
:1026FC0000000000010203042E2E2F5372632F6D75
:08270C0061696E2E63000000FC
:08271400E4DAFF7F0100000080
:04271C00AD01000803
:042720008901000823
:102724000100000010000000FDFFFFFF6400000036
:08273400010000000024F40084
:040000050800263990
:00000001FF
